{
  "_format": "hh3-artifact-1",
  "contractName": "VeriWork",
  "sourceName": "contracts/VeriWork.sol",
  "abi": [
    {
      "inputs": [
        {
          "internalType": "address",
          "name": "_verifier",
          "type": "address"
        }
      ],
      "stateMutability": "nonpayable",
      "type": "constructor"
    },
    {
      "anonymous": false,
      "inputs": [
        {
          "indexed": true,
          "internalType": "address",
          "name": "employer",
          "type": "address"
        }
      ],
      "name": "EmployerAdded",
      "type": "event"
    },
    {
      "anonymous": false,
      "inputs": [
        {
          "indexed": true,
          "internalType": "address",
          "name": "employer",
          "type": "address"
        }
      ],
      "name": "EmployerRevoked",
      "type": "event"
    },
    {
      "anonymous": false,
      "inputs": [
        {
          "indexed": true,
          "internalType": "address",
          "name": "worker",
          "type": "address"
        },
        {
          "indexed": false,
          "internalType": "bool",
          "name": "result",
          "type": "bool"
        }
      ],
      "name": "ProofVerified",
      "type": "event"
    },
    {
      "anonymous": false,
      "inputs": [
        {
          "indexed": true,
          "internalType": "uint256",
          "name": "id",
          "type": "uint256"
        },
        {
          "indexed": true,
          "internalType": "address",
          "name": "worker",
          "type": "address"
        },
        {
          "indexed": true,
          "internalType": "address",
          "name": "employer",
          "type": "address"
        }
      ],
      "name": "RecordCreated",
      "type": "event"
    },
    {
      "anonymous": false,
      "inputs": [
        {
          "indexed": true,
          "internalType": "uint256",
          "name": "id",
          "type": "uint256"
        },
        {
          "indexed": true,
          "internalType": "address",
          "name": "worker",
          "type": "address"
        },
        {
          "indexed": false,
          "internalType": "uint256",
          "name": "newScore",
          "type": "uint256"
        }
      ],
      "name": "RecordVerified",
      "type": "event"
    },
    {
      "anonymous": false,
      "inputs": [
        {
          "indexed": false,
          "internalType": "address",
          "name": "newVerifier",
          "type": "address"
        }
      ],
      "name": "VerifierUpdated",
      "type": "event"
    },
    {
      "inputs": [],
      "name": "MAX_POINTS_PER_RECORD",
      "outputs": [
        {
          "internalType": "uint256",
          "name": "",
          "type": "uint256"
        }
      ],
      "stateMutability": "view",
      "type": "function"
    },
    {
      "inputs": [
        {
          "internalType": "address",
          "name": "_employer",
          "type": "address"
        }
      ],
      "name": "addEmployer",
      "outputs": [],
      "stateMutability": "nonpayable",
      "type": "function"
    },
    {
      "inputs": [],
      "name": "admin",
      "outputs": [
        {
          "internalType": "address",
          "name": "",
          "type": "address"
        }
      ],
      "stateMutability": "view",
      "type": "function"
    },
    {
      "inputs": [
        {
          "internalType": "address",
          "name": "_worker",
          "type": "address"
        }
      ],
      "name": "getReputation",
      "outputs": [
        {
          "internalType": "uint256",
          "name": "",
          "type": "uint256"
        }
      ],
      "stateMutability": "view",
      "type": "function"
    },
    {
      "inputs": [
        {
          "internalType": "address",
          "name": "_worker",
          "type": "address"
        }
      ],
      "name": "getWorkerRecordIds",
      "outputs": [
        {
          "internalType": "uint256[]",
          "name": "",
          "type": "uint256[]"
        }
      ],
      "stateMutability": "view",
      "type": "function"
    },
    {
      "inputs": [
        {
          "internalType": "address",
          "name": "",
          "type": "address"
        }
      ],
      "name": "isEmployer",
      "outputs": [
        {
          "internalType": "bool",
          "name": "",
          "type": "bool"
        }
      ],
      "stateMutability": "view",
      "type": "function"
    },
    {
      "inputs": [],
      "name": "recordCount",
      "outputs": [
        {
          "internalType": "uint256",
          "name": "",
          "type": "uint256"
        }
      ],
      "stateMutability": "view",
      "type": "function"
    },
    {
      "inputs": [
        {
          "internalType": "uint256",
          "name": "",
          "type": "uint256"
        }
      ],
      "name": "records",
      "outputs": [
        {
          "internalType": "uint256",
          "name": "id",
          "type": "uint256"
        },
        {
          "internalType": "address",
          "name": "worker",
          "type": "address"
        },
        {
          "internalType": "address",
          "name": "employer",
          "type": "address"
        },
        {
          "internalType": "string",
          "name": "ipfsHash",
          "type": "string"
        },
        {
          "internalType": "uint8",
          "name": "rating",
          "type": "uint8"
        },
        {
          "internalType": "uint256",
          "name": "durationDays",
          "type": "uint256"
        },
        {
          "internalType": "bool",
          "name": "isVerified",
          "type": "bool"
        },
        {
          "internalType": "uint256",
          "name": "timestamp",
          "type": "uint256"
        }
      ],
      "stateMutability": "view",
      "type": "function"
    },
    {
      "inputs": [
        {
          "internalType": "address",
          "name": "",
          "type": "address"
        }
      ],
      "name": "reputationScore",
      "outputs": [
        {
          "internalType": "uint256",
          "name": "",
          "type": "uint256"
        }
      ],
      "stateMutability": "view",
      "type": "function"
    },
    {
      "inputs": [
        {
          "internalType": "address",
          "name": "_employer",
          "type": "address"
        }
      ],
      "name": "revokeEmployer",
      "outputs": [],
      "stateMutability": "nonpayable",
      "type": "function"
    },
    {
      "inputs": [
        {
          "internalType": "address",
          "name": "_worker",
          "type": "address"
        },
        {
          "internalType": "string",
          "name": "_ipfsHash",
          "type": "string"
        },
        {
          "internalType": "uint8",
          "name": "_rating",
          "type": "uint8"
        },
        {
          "internalType": "uint256",
          "name": "_durationDays",
          "type": "uint256"
        }
      ],
      "name": "submitRecord",
      "outputs": [],
      "stateMutability": "nonpayable",
      "type": "function"
    },
    {
      "inputs": [
        {
          "internalType": "address",
          "name": "_verifier",
          "type": "address"
        }
      ],
      "name": "updateVerifier",
      "outputs": [],
      "stateMutability": "nonpayable",
      "type": "function"
    },
    {
      "inputs": [],
      "name": "verifier",
      "outputs": [
        {
          "internalType": "contract IVerifier",
          "name": "",
          "type": "address"
        }
      ],
      "stateMutability": "view",
      "type": "function"
    },
    {
      "inputs": [
        {
          "internalType": "uint256",
          "name": "_recordId",
          "type": "uint256"
        }
      ],
      "name": "verifyRecord",
      "outputs": [],
      "stateMutability": "nonpayable",
      "type": "function"
    },
    {
      "inputs": [
        {
          "internalType": "uint256[2]",
          "name": "_pA",
          "type": "uint256[2]"
        },
        {
          "internalType": "uint256[2][2]",
          "name": "_pB",
          "type": "uint256[2][2]"
        },
        {
          "internalType": "uint256[2]",
          "name": "_pC",
          "type": "uint256[2]"
        },
        {
          "internalType": "uint256[1]",
          "name": "_pubSignals",
          "type": "uint256[1]"
        }
      ],
      "name": "verifyZKProof",
      "outputs": [
        {
          "internalType": "bool",
          "name": "",
          "type": "bool"
        }
      ],
      "stateMutability": "nonpayable",
      "type": "function"
    }
  ],
  "bytecode": "0x6080604052348015600e575f5ffd5b5060405161125b38038061125b833981016040819052602b91605c565b5f8054336001600160a01b031991821617909155600180549091166001600160a01b03929092169190911790556087565b5f60208284031215606b575f5ffd5b81516001600160a01b03811681146080575f5ffd5b9392505050565b6111c7806100945f395ff3fe608060405234801561000f575f5ffd5b50600436106100f0575f3560e01c806369c35125116100935780639c89a0e2116100635780639c89a0e214610229578063d76fb39f14610251578063f0d758f114610264578063f851a44014610277575f5ffd5b806369c35125146101e5578063900407bc1461020557806393ed03911461020e57806397fc007c14610216575f5ffd5b80633af4d950116100ce5780633af4d95014610160578063417d6c991461017357806350d061cb146101a557806368b54919146101d2575f5ffd5b80630fe258b4146100f45780632b7ac3f3146101095780633446106714610139575b5f5ffd5b610107610102366004610d0a565b610289565b005b60015461011c906001600160a01b031681565b6040516001600160a01b0390911681526020015b60405180910390f35b61014c610147366004610d2a565b61036a565b604051610130989796959493929190610d41565b61010761016e366004610d2a565b610447565b610195610181366004610d0a565b60056020525f908152604090205460ff1681565b6040519015158152602001610130565b6101c46101b3366004610d0a565b60066020525f908152604090205481565b604051908152602001610130565b6101076101e0366004610d0a565b61065a565b6101f86101f3366004610d0a565b610785565b6040516101309190610dcd565b6101c460025481565b6101c460c881565b610107610224366004610d0a565b6107ee565b6101c4610237366004610d0a565b6001600160a01b03165f9081526006602052604090205490565b61019561025f366004610e25565b61086b565b610107610272366004610e87565b61097d565b5f5461011c906001600160a01b031681565b5f546001600160a01b031633146102bb5760405162461bcd60e51b81526004016102b290610f24565b60405180910390fd5b6001600160a01b0381165f9081526005602052604090205460ff166103225760405162461bcd60e51b815260206004820152601960248201527f56657269576f726b3a206e6f7420616e20656d706c6f7965720000000000000060448201526064016102b2565b6001600160a01b0381165f81815260056020526040808220805460ff19169055517f40b7dac39a544182adaf73df961a3719b51949d07e5abed68f328d5ebba7b1889190a250565b600360208190525f9182526040909120805460018201546002830154938301805492946001600160a01b03928316949216926103a590610f5b565b80601f01602080910402602001604051908101604052809291908181526020018280546103d190610f5b565b801561041c5780601f106103f35761010080835404028352916020019161041c565b820191905f5260205f20905b8154815290600101906020018083116103ff57829003601f168201915b505050600484015460058501546006860154600790960154949560ff92831695919450909116915088565b5f81815260036020526040812080549091036104a55760405162461bcd60e51b815260206004820152601f60248201527f56657269576f726b3a207265636f726420646f6573206e6f742065786973740060448201526064016102b2565b60028101546001600160a01b0316331461051b5760405162461bcd60e51b815260206004820152603160248201527f56657269576f726b3a206f6e6c7920746865207375626d697474696e6720656d604482015270706c6f7965722063616e2076657269667960781b60648201526084016102b2565b600681015460ff16156105705760405162461bcd60e51b815260206004820152601a60248201527f56657269576f726b3a20616c726561647920766572696669656400000000000060448201526064016102b2565b60068101805460ff1916600117905560058101545f9061059290601e90610fa7565b90505f6105a0826005610fc6565b60048401546105b39060ff16600a610fc6565b6105bd9190610fdd565b905060c88111156105cc575060c85b60018301546001600160a01b03165f90815260066020526040812080548392906105f7908490610fdd565b909155505060018301546001600160a01b03165f818152600660205260409081902054905186917f2711a1edb3e0bb8b7cecede8778c7faf898d7781ba287830a520008f3c9949a19161064c91815260200190565b60405180910390a350505050565b5f546001600160a01b031633146106835760405162461bcd60e51b81526004016102b290610f24565b6001600160a01b0381166106d25760405162461bcd60e51b815260206004820152601660248201527556657269576f726b3a207a65726f206164647265737360501b60448201526064016102b2565b6001600160a01b0381165f9081526005602052604090205460ff161561073a5760405162461bcd60e51b815260206004820152601d60248201527f56657269576f726b3a20616c726561647920616e20656d706c6f79657200000060448201526064016102b2565b6001600160a01b0381165f81815260056020526040808220805460ff19166001179055517f5a8f2961260f818d9667b25560811fd29da53292f5479e674f27c6f0db898fd49190a250565b6001600160a01b0381165f908152600460209081526040918290208054835181840281018401909452808452606093928301828280156107e257602002820191905f5260205f20905b8154815260200190600101908083116107ce575b50505050509050919050565b5f546001600160a01b031633146108175760405162461bcd60e51b81526004016102b290610f24565b600180546001600160a01b0319166001600160a01b0383169081179091556040519081527fd24015cc99cc1700cafca3042840a1d8ac1e3964fd2e0e37ea29c654056ee3279060200160405180910390a150565b6001545f906001600160a01b03166108c55760405162461bcd60e51b815260206004820181905260248201527f56657269576f726b3a206e6f20766572696669657220636f6e6669677572656460448201526064016102b2565b6001546040516343753b4d60e01b81525f916001600160a01b0316906343753b4d906108fb908990899089908990600401610ff0565b602060405180830381865afa158015610916573d5f5f3e3d5ffd5b505050506040513d601f19601f8201168201806040525081019061093a919061103f565b604051811515815290915033907f67138ba576c85b9348a42249a156ac9e82c361ab57372970c581a0c36c9673e99060200160405180910390a295945050505050565b335f9081526005602052604090205460ff166109f15760405162461bcd60e51b815260206004820152602d60248201527f56657269576f726b3a2063616c6c6572206973206e6f7420612072656769737460448201526c32b932b21032b6b83637bcb2b960991b60648201526084016102b2565b6001600160a01b038516610a475760405162461bcd60e51b815260206004820181905260248201527f56657269576f726b3a20696e76616c696420776f726b6572206164647265737360448201526064016102b2565b82610a945760405162461bcd60e51b815260206004820152601960248201527f56657269576f726b3a20656d707479204950465320686173680000000000000060448201526064016102b2565b60018260ff1610158015610aac5750600a8260ff1611155b610af85760405162461bcd60e51b815260206004820152601d60248201527f56657269576f726b3a20726174696e67206d75737420626520312d313000000060448201526064016102b2565b5f8111610b475760405162461bcd60e51b815260206004820152601e60248201527f56657269576f726b3a206475726174696f6e206d757374206265203e2030000060448201526064016102b2565b60028054905f610b568361105e565b91905055506040518061010001604052806002548152602001866001600160a01b03168152602001336001600160a01b0316815260200185858080601f0160208091040260200160405190810160405280939291908181526020018383808284375f92018290525093855250505060ff8516602080840191909152604080840186905260608085018490524260809095019490945260028054845260038084529382902086518155928601516001840180546001600160a01b03199081166001600160a01b039384161790915592870151918401805490931691161790559183015190820190610c4690826110d6565b5060808201516004808301805460ff90931660ff1993841617905560a0840151600584015560c0840151600684018054911515919093161790915560e0909201516007909101556001600160a01b0386165f8181526020928352604080822060028054825460018101845592855295842090910194909455925492513393917f162981e8660ef88d8be76f4d61429c8901ed3da7efbc4d5b833aab72ba8f41ae91a45050505050565b80356001600160a01b0381168114610d05575f5ffd5b919050565b5f60208284031215610d1a575f5ffd5b610d2382610cef565b9392505050565b5f60208284031215610d3a575f5ffd5b5035919050565b88815260018060a01b038816602082015260018060a01b038716604082015261010060608201525f865180610100840152806020890161012085015e5f6101208285010152610120601f19601f830116840101915050610da6608083018760ff169052565b8460a0830152610dba60c083018515159052565b8260e08301529998505050505050505050565b602080825282518282018190525f918401906040840190835b81811015610e04578351835260209384019390920191600101610de6565b509095945050505050565b8060408101831015610e1f575f5ffd5b92915050565b5f5f5f5f6101208587031215610e39575f5ffd5b610e438686610e0f565b935060c0850186811115610e55575f5ffd5b604086019350610e658782610e0f565b9250508561012086011115610e78575f5ffd5b50919490935090916101000190565b5f5f5f5f5f60808688031215610e9b575f5ffd5b610ea486610cef565b9450602086013567ffffffffffffffff811115610ebf575f5ffd5b8601601f81018813610ecf575f5ffd5b803567ffffffffffffffff811115610ee5575f5ffd5b886020828401011115610ef6575f5ffd5b60209190910194509250604086013560ff81168114610f13575f5ffd5b949793965091946060013592915050565b6020808252601d908201527f56657269576f726b3a2063616c6c6572206973206e6f742061646d696e000000604082015260600190565b600181811c90821680610f6f57607f821691505b602082108103610f8d57634e487b7160e01b5f52602260045260245ffd5b50919050565b634e487b7160e01b5f52601160045260245ffd5b5f82610fc157634e487b7160e01b5f52601260045260245ffd5b500490565b8082028115828204841417610e1f57610e1f610f93565b80820180821115610e1f57610e1f610f93565b6101208101604086833760408201855f5b60028110156110225760408284376040928301929190910190600101611001565b50505060408460c084013760208361010084013795945050505050565b5f6020828403121561104f575f5ffd5b81518015158114610d23575f5ffd5b5f6001820161106f5761106f610f93565b5060010190565b634e487b7160e01b5f52604160045260245ffd5b601f8211156110d157805f5260205f20601f840160051c810160208510156110af5750805b601f840160051c820191505b818110156110ce575f81556001016110bb565b50505b505050565b815167ffffffffffffffff8111156110f0576110f0611076565b611104816110fe8454610f5b565b8461108a565b6020601f821160018114611136575f831561111f5750848201515b5f19600385901b1c1916600184901b1784556110ce565b5f84815260208120601f198516915b828110156111655787850151825560209485019460019092019101611145565b508482101561118257868401515f19600387901b60f8161c191681555b50505050600190811b0190555056fea264697066735822122005af352dcd0ed7c01f576a636a92a2f56e2d10453870bd661589698c54e46b5f64736f6c634300081c0033",
  "linkReferences": {},
  "deployedLinkReferences": {},
  "immutableReferences": {},
  "inputSourceName": "project/contracts/VeriWork.sol",
  "buildInfoId": "solc-0_8_28-93139badfccc6083a777d105d4dd6b6a04056aa8"
}